:020000040800F2
:1000000000500020E14C0008414300084343000831
:10001000454300084743000849430008000000002A
:100020000000000000000000000000004B4300083A
:100030004D430008000000004F43000851430008F2
:100040003B4D00083D4D00083F4D0008414D000864
:10005000434D0008454D0008474D0008494D000834
:100060004B4D00084D4D00084F4D0008514D000804
:10007000534D0008554D0008574D0008594D0008D4
:100080005B4D00085D4D00085F4D0008614D0008A4
:1000900055430008654D0008674D0008694D00088C
:1000A0006B4D00086D4D00086F4D0008714D000844
:1000B000734D0008754D0008774D0008794D000814
:1000C0007B4D00087D4D00087F4D0008614300080E
:1000D000834D00086D430008874D0008894D0008D6
:1000E0008B4D00088D4D00088F4D000810B5054C54
:1000F000237833B9044B13B10448AFF300800123D4
:10010000237010BDCC010020000000004058000802
:10011000084B10B51BB108490848AFF300800848E8
:10012000036803B910BD074B002BFBD0BDE810409E
:10013000184700BF00000000D00100204058000810
:10014000CC01002000000000154B002B08BF134B12
:100150009D46A3F5803A00218B460F461348144A6A
:10016000121A05F020FB0F4B002B00D098470E4BC6
:10017000002B00D098470020002104000D000D48FE
:10018000002802D00C48AFF3008005F0DBFA200015
:10019000290004F06BF905F0C1FA00BF0000080067
:1001A000005000200000000000000000CC010020F2
:1001B0008C0A002000000000000000007FB5164CF3
:1001C00010220021684605F0EEFA4FF43C4323610B
:1001D00002254FF430530126694620468DE8480039
:1001E000039502F0FBF94FF41042112369462046B3
:1001F0008DE80C000296039502F0F0F94FF480436D
:10020000009369460023204601930293039502F070
:10021000E5F904B070BD00BF000C01401FB510220D
:100220000021684605F0BFFA4FF4006201238DE813
:100230000C00694602230348039302F0CFF905B08E
:100240005DF804FB000C014045F6C05358430138EB
:1002500000D0FCE7704700002DE9F04F03788DB027
:1002600083F080021F2A0446894603D801F02CF847
:1002700000F0E0BF0B7003784A1C03921D2B00F2C4
:10028000C787DFE813F01E004F006400A000710272
:100290007A024106C507A207B600BD00C507C5071B
:1002A000C507C507C507C30068018701AD01FC018B
:1002B00027025002C507C507C507C507C507C507FB
:1002C000BD014378F12B18D005D8042B0DD0F02BAD
:1002D00021D133231BE0FE2B18D0FF2B1BD1402351
:1002E0008B700023CB70022016E0B24B06201A68F8
:1002F0009B88C1F80220CB800EE000238B70A223E4
:10030000CB7004204A230B71487105E0042389F85F
:100310000230012000E0002089F8010000F1021005
:1003200000F088BF43781BB1012B0AD0FF2309E0FE
:1003300083784FF4005213F0010F9F4B14BF5A61A2
:100340001A61002389F801309C4E00F066BF4478A2
:1003500044B1012C06D0022C31D1994B1C70FFF70F
:100360002DFF2DE0964B974D01241022002108A867
:100370001C7005F018FA4FF4E0532B6102264FF47D
:10038000406308A92846089309940B9602F026F9C1
:100390004FF48053089308A91123284609930A941F
:1003A0000B9602F01BF94FF46043089308A9002351
:1003B000284609930A930B9602F010F900E00024F6
:1003C00089F8014018E100247D4B1022214608A83D
:1003D0001C7005F0E8F94FF47C43089308A9022348
:1003E00078480B93012602F0F9F889F8014000F0F3
:1003F00014BFB0F8012018235343013BA2D0FCE7FF
:1004000000238B704B70022600F007BF857846787A
:1004100015F00104D0F803A007D06A4B16F0010FC5
:100420004FF4806214BF1A615A6105F0020303F0B1
:10043000FF073BB1634B16F0020F4FF4006214BF8D
:100440001A615A6105F0040303F0FF083BB15D4BEC
:1004500016F0040F4FF4005214BF1A615A6125F0D0
:100460007F0303F0FF020192BBB10021102208A814
:1004700005F099F95348F3094FF4805301BF4361E4
:100480000893112309930BBF012303610A93089377
:1004900008A902230B9302F0A1F8BAF1000F3DD096
:1004A000494B72099A4528BF9A46482303FB0AFE26
:1004B000464B05F02005D3F804B00292414A71087A
:1004C000B0084FEAD61CEDB203932CB1D2F80CA0C1
:1004D000CAF3802A56451AD12FB1D2F80CA0CAF31C
:1004E000C02A514513D1B8F1000F05D0D2F80CA0A5
:1004F000CAF3403A50450AD10DB1029B3BB9019B6A
:1005000063B1D2F80CA0CAF3003AD44506D0039BDD
:10051000D3F804A0CBEB0A0AD645D6D8294C2C4EEA
:10052000E168E268E068C2F3C022C0F34030A56829
:100530008000E36840EA4202C1F380211143C5F321
:10054000803241EAC202C3F3003342EAC31389F89E
:10055000013000F062BED0F8011009B9FF2314E0A9
:100560001C4B174A994202D9012353700BE0002318
:100570005370194B0B44B3FBF1F3022B1ABF032149
:10058000B3FBF1F301235360002389F80130134ECC
:1005900000F043BE4578811C002D08BF4FF48075E4
:1005A000284601F0D7FBEE1D002389F80130F6083C
:1005B000B3E000BFD0570008001001400100020066
:1005C0005C040020000C0140C0C62D00001000E0BB
:1005D000010006007FA81201FF502502010004005F
:1005E0004378B84903F003020132C3F380034B762A
:1005F0000A76002389F801304FF0011600F00DBE95
:100600000124264600234B70437801F1020B821C23
:100610005D1E002B5AD092F8008002F1010A18F0FA
:100620003F0708BF4027073728F07F03FF0803F084
:10063000FF0973B11022002108A805F0B4F84FF4A7
:100640000063089308A902239F480B9301F0C6FF9B
:1006500001E0FFF7E3FD5A465146404601F0A2FB98
:100660000DB9FFF7DBFD0136B9F1000F02D0BB4435
:100670003C4401E0BA443E442B465246C8E70124BC
:10068000264600234B7090F801808D1C831CB8F126
:10069000000F1BD093F8009003F1010A19F03F07F7
:1006A00008BF40270737FF082A465146484600F052
:1006B00029FE19F0800F07F101020AEB0703164427
:1006C0001CBFED19E41908F1FF38E0E744EA0646DB
:1006D00000F0A3BD00210B4646787A4A851C967629
:1006E00002F122008E4207D96C5C57183C77013129
:1006F00020F8023F2344F5E7744906F11B0001F19D
:1007000017040244914205D011F8010F1B1A24F876
:10071000023FF7E7002389F801300136360446F03E
:10072000010600F07ABD674B1A78022A1AD1427886
:10073000DA769B7E934215D90E2000F069FF00F017
:100740002BFE002389F80130030A89F8020089F89A
:100750000330030C000E89F8043089F805005C4E64
:1007600000F05BBDFF2345E74278564B1A73428881
:100770001A8282885A8200F037BD524F431C06937A
:100780003B78012B03D0022B00F0DA81A5E3514B1B
:100790000025827800F1030B2C4628469A46CE1C91
:1007A0001D7001920495019B002B00F08A819BF83B
:1007B00000800BF1010318F0020F029300F0198181
:1007C000002C49D008F01103012B3C8A0FD108A955
:1007D000404601F039FB02281AD1002C00F0208598
:1007E0009AF80030013C002BF1D000F019BD08A9A7
:1007F0000E2001F029FB02280CD1002C00F01185FD
:100800009AF80030013C002BF1D0002400F009BD23
:10081000012400E00024012851D1089B1A0A3370FA
:1008200072701A0C1B0EB270F370321D84B118F086
:10083000800F0FD0BB6808361A0A06F8043C06F889
:10084000032C1A0C1B0E06F8022C06F8013C02E0E1
:10085000164601E01646044608F0100303F0FF02B6
:10086000002B66D0DBF8013018F0010F05930BF177
:1008700005030293B7F812B04CD03B8A00214046E2
:10088000079301F0E1FA022807D1079BBBB19AF860
:100890000020013B002AF1D011E001283AD00EE0FF
:1008A0003C8A08A9404601F0CFFA022840F0CE80E9
:1008B0002CB19AF80030013C002BF2D00024DDF876
:1008C00008B0F7E05C040020000C01407704002031
:1008D00005000100A0040020079BEBB19AF800205E
:1008E000013BCAB908A94046079301F0ADFA0228B6
:1008F0000146F1D001280FD17A69089B1340059A6F
:100900009A4209D0BBF1000F06D09AF800300BF1E3
:10091000FF3B0BB93B8AE5E77A69089B1340059AD0
:100920009A4203D041F01000C0B2C8E701295ED05E
:10093000C5E718F0010FB7F810B033D0002C40F025
:100940009D800021404601F07FFA022809D1BBF1C9
:10095000000FB4D09AF800300BF1FF3B002BF0D021
:10096000ADE70128ABD128F07F0303F0FF05002B92
:1009700000F08780BB6804361A0A06F8043C06F8C3
:10098000032C1A0C1B0E06F8022C06F8013C00255D
:1009900077E0BBF1000F92D09AF800300BF1FF3BEB
:1009A000002B8CD108A9404601F04EFA0228F0D065
:1009B000012884D118F0800F0CD0BB6804361A0AC5
:1009C00006F8043C06F8032C1A0C1B0E06F8022C41
:1009D00006F8013C089B04361A0A06F8043C06F89F
:1009E000032C1A0C1B0E06F8022C06F8013C0025FD
:1009F0004AE0ECB13C8A08A90E2001F025FA022851
:100A000007D124B19AF80030013C002BF3D0012427
:100A100055E70128FBD1089B04361A0A06F8043C66
:100A200006F8032C1A0C1B0E06F8022C06F8013CE3
:100A3000DBF801300BF1050218F0200F0893029249
:100A40003FF42EAF7B61002401201DE001287FF4DC
:100A500035AF28F07F0303F0FF04A3B1BB68043671
:100A60001A0A06F8043C06F8032C1A0C1B0E06F8AA
:100A7000022C06F8013C0546002405E01546012439
:100A800002E0044600E00546049B013304939AF813
:100A90000030002B7FF413AF019BDDF808B0013B61
:100AA000019380E6DB0609D40BF1010B019B013BAE
:100AB000019306D09BF800309A07F3D40BF1050B95
:100AC000F4E701282ED1F4B1A64BA74D1C8A08A942
:100AD0000E2001F0B9F9022805D11CB32B78013C96
:100AE000002BF4D01EE001281CD1089B04361A0A02
:100AF00006F8043C06F8032C1A0C1B0E06F8022C10
:100B000006F8013C0EE06DB1964B974D1C8A002112
:100B10000E2001F099F9022804D11CB12B78013C78
:100B2000002BF4D09DF8103089F8020089F80130CC
:100B3000069BC3EB0B0B039BF61A46EA0B466CE3D2
:100B40006378BA7E884D00209A4201F1030828702C
:100B5000FB7602D8A61C0590B1E1A378E61C83467B
:100B6000044602930590029B002B00F0728196F8D8
:100B700000A0731C1AF0010F049314BF0B230A2367
:100B80001AF0020F019300F0F180002C57D0019A67
:100B90003B8A934512D11AF0100F0FD108A9504685
:100BA000079300F041FE022825D1079B002B00F09F
:100BB0003D832A78013B002AF0D037E3BBF10A0FCE
:100BC00004D00A20079300F023FD079B1C4608A9C8
:100BD0000E2000F029FE02280AD1002C00F0248308
:100BE0002B78013C002BF2D04FF00A0B00241DE3C0
:100BF0004FF00A0B0024012845D1089B1A0A88F8F7
:100C0000003088F801201A0C1B0E88F8022088F8A2
:100C1000033008F104028CB11AF0800F0ED0BB68CB
:100C200008F108081A0A08F8043C08F8032C1A0C02
:100C30001B0E08F8022C08F8013C00E090461AF060
:100C4000100F64D0D6F801300793731D0493019BF5
:100C50007E8A5B4502D0184600F0DAFC414BB3F8BF
:100C600010B00021504600F0DFFD022808D1BBF192
:100C7000000F1FD02B780BF1FF3B002BF1D019E0B8
:100C8000012833D016E0CDF804B013E0019B5B459A
:100C900002D0184600F0BCFC3C8A08A9504600F07F
:100CA000C3FD022840F09D8024B12B78013C002B2D
:100CB000F3D00024049EBEE0BBF1000F19D02B78C6
:100CC0000BF1FF3BABB908A9504600F0ADFD02287F
:100CD0000146F1D001280CD17A69089B1340079A8C
:100CE0009A4206D02EB12B78013E13B9B7F810B056
:100CF000E9E77A69089B1340079A9A4203D041F0CA
:100D00001000C0B2D6E7012800F08780D2E7002C9F
:100D10007FD1019B5B4502D0184600F079FC3E8AEA
:100D20000021504600F080FD022806D1002EC1D0DF
:100D30002B78013E002BF3D0BCE70128BAD11AF082
:100D4000800F69D0074B08F104089B681A0A08F85D
:100D5000043C08F8032C1A0C1B0E08F8022C08F8A7
:100D6000013C59E05C040020A004002054B3BBF116
:100D70000A0F02D00A2000F04BFCB7F810B008A907
:100D80000E2000F051FD02280AD1BBF1000F04D063
:100D90002B780BF1FF3B002BF1D00A23019389E75D
:100DA0000128FAD1089B08F104081A0A08F8043C43
:100DB00008F8032C1A0C1B0E08F8022C08F8013C4A
:100DC0004FF00A0BD6F80130721D1AF0200F08936D
:100DD00004923FF45BAF7B61CDF804B000240120A6
:100DE0001BE001287FF465AF2AF07F0303F0FF04C6
:100DF0009BB1BB6808F104081A0A08F8043C08F81B
:100E0000032C1A0C1B0E08F8022C08F8013C0024D5
:100E100003E0CDF804B000E00446059B01330593E0
:100E20002B78002B7FF446AF029BDDF804B0013B2A
:100E30000293049E97E633789F0703D5DD0601D41D
:100E4000013600E00536029B013B0293F3D1DDF849
:100E500004B0012833D1BBF10A0F02D00A2000F000
:100E6000D7FBAF4BF4B11C8AAE4D08A90E2000F0A1
:100E7000DBFC022805D114B32B78013C002BF4D005
:100E80001DE001281BD1089B08F104081A0A08F884
:100E9000043C08F8032C1A0C1B0E08F8022C08F866
:100EA000013C0CE01C8A9F4D00210E2000F0BCFC90
:100EB000022804D11CB12B78013C002BF4D09DF802
:100EC000143089F8020089F80130069BF61A039B5A
:100ED000C3EB080848EA06469FE18378C61C4BB17D
:100EE0003278910703D5D20601D4013600E00536E9
:100EF000013BF4E789F8013089F80230069BF61AC5
:100F0000360446F0020688E1854F00263B78012B27
:100F100003D0022B00F08F8049E10B1D0193B0F844
:100F200002B0804B1E701D46BBF1000F77D090F8C9
:100F3000048008F0020303F0FF060BB9431D58E0DC
:100F400018F001000FD03E8A0021404600F07CFFDF
:100F5000022806D1002E66D02B78013E002BF3D05C
:100F600060E001285ED15B46DDF804A00026B345B1
:100F7000CDF804A003F1FF3355D023B918F0010FC9
:100F800018BF4FF00E083A8A08A94046049302920F
:100F900000F05AFF0228049B07D1029A002A42D08F
:100FA0002978013A0029EFD03DE001280AF1040A2E
:100FB00039D1089A0136110A0AF8042C0AF8031CE0
:100FC000110C120E0AF8021C0AF8012CCFE7BAF134
:100FD000000F28D02A780AF1FF3A22BB08A9404620
:100FE000029300F031FF0228029BF0D001281AD1B1
:100FF0000136B34503EB860204D01268B7F810A09F
:101000000892EBE73F8A00210E2000F01DFF022826
:1010100009D147B12B78013F002BF4D003E05846AB
:101020005E4600E0002689F80160360A89F8026011
:1010300089F80300B7E00B1D4278B97E0193394B64
:1010400091421E70FA76049340F2A180B0F802A09B
:10105000BAF1000F00F09A8090F8048018F0010FA8
:1010600014BF0B230A231846029300F0D1FA08F0AC
:101070000202C34602F0FF050AB9621D68E03D8A1C
:101080000021404600F0D0FB0228064608D1002D82
:1010900000F08280049B013D1A78002AF0D078E0AD
:1010A000012876D15346DDF804800025AA45CDF805
:1010B000048003F1FF336FD063B9029A0A2A07D084
:1010C0000A2004934FF00E0B00F0A2FA049B01E0FB
:1010D0004FF00E0B3A8A08A958460593049200F087
:1010E000A3FB0228059B08D1049A002A53D00D497E
:1010F000013A09780029EED04DE0012808F10408F2
:1011000049D1089A0135110A08F8042C08F8031C83
:10111000110C120E08F8021C08F8012CC6E700BFDB
:101120005C040020A0040020BBF1000F34D0049B1D
:101130000BF1FF3B197879BB08A94046059200F0F6
:1011400073FB02280646059AEED0012824D101350A
:10115000AA4502EB850104D00968B7F810B00891E0
:10116000EAE7029B0A2B02D00A2000F051FA3F8ADC
:1011700000210E2000F058FB022806460CD15FB17A
:10118000049B013F1B78002BF2D005E05646354604
:1011900002E0002500E0064689F801502D0A89F892
:1011A000025089F80360019B039A9E1A03E04E7077
:1011B0008E70CE70032623799B0757BF658846F44F
:1011C0008026013546EA854627E01C4B1A78012A1D
:1011D00002D0022A0AD016E0D0F802300CA941F859
:1011E000103D002000F030FE00230DE04278DA765A
:1011F0009B7E934207D9082000F00AFAD4F8020037
:1012000000F03EF9F0E7FF2389F801300C4E04E0CE
:10121000FF230B704FF001100CE006F1011009E004
:1012200001240220FFF74BBB4FF00A0BCDF804B0AE
:1012300002203FE50DB0BDE8F08F00BF5C04002048
:1012400001000500F8B504787F2C13D10D4605F890
:10125000024B4478871C4C704FF0021674B129463B
:101260003846FEF7F9FF064407EB104780B2054405
:10127000013CF3E7BDE8F840FEF7EEBF3046F8BDAD
:101280000F4B07B5222159606421002219820121E8
:1012900019765A769A761A705A701A735A825A6167
:1012A000084B9A6942F008029A619B6903F00803AF
:1012B0000193019BFEF782FF03B05DF804FB00BFC2
:1012C0005C0400200010024003784FF001100B7006
:1012D00070470000044B10F0010F4FF4005214BF90
:1012E0001A615A61704700BF000C0140024B9868B8
:1012F000C0F38030704700BF000C0140013800D0BF
:10130000FCE770472DE9F74F10F03F0408BF402479
:1013100010F0400F904606461D4B4FF4006205D07A
:101320001A61DFF86C90DFF86CA001E05A61F8E711
:1013300011F8013B082700254FF4806BE4B11846F3
:101340000193FFF7C7FFC9F814B0DAF80400FFF7FC
:10135000D5FFFFF7CBFFC9F810B00246DAF804005A
:10136000FFF7CCFF019BD201013F4FEA530342EA52
:10137000550504F1FF34E1D1330642BFFD4088F842
:10138000005008F10108002CD2D103B0BDE8F08F65
:10139000000C01405C0400202DE9F047364B374932
:1013A0004FF480624FF400641C615A614868FFF793
:1013B000A5FF1A614868FFF7A1FF5C615A614868A0
:1013C000FFF79CFF1A614868FFF798FF5A61486869
:1013D000FFF794FF1A614868FFF790FFCC7E4CB18D
:1013E0005A614868FFF78AFF1A614868FFF786FF6D
:1013F000013CF4E74FF48069CA46DFF87C801F2780
:10140000C8F814A048681C4AFFF778FFFFF76EFF82
:10141000C8F8109003464868FFF770FF013F44EAA0
:10142000C3744FF48066154D4FEA5404E8D14FF46D
:101430000061116156616868FFF760FFFFF756FFB2
:10144000166103466868FFF759FF5661686844EA09
:10145000C373FFF753FF16616868FFF74FFF5161D1
:1014600056616868FFF74AFF16616868FFF746FF34
:101470001846BDE8F08700BF000C01405C04002066
:101480002DE9F047604B4FF4806260494FF40064EF
:101490001C615A6106464868FFF730FF1A614868C8
:1014A000FFF72CFF5C615A614868FFF727FF1A615C
:1014B0004868FFF723FF5A614868FFF71FFF1A616A
:1014C0004868FFF71BFF1446CF7E4F4A4FF48065F4
:1014D0004FB15C614868FFF711FF1C614868FFF776
:1014E0000DFF013FF1E74FF4005353615561486828
:1014F000FFF704FF15614868FFF700FF5561486872
:10150000FFF7FCFE15614868FFF7F8FE5561486873
:10151000FFF7F4FE15614868FFF7F0FE14464FF040
:101520001F0A3046FFF7D6FE65614868FFF7E6FE02
:1015300025614868FFF7E2FEBAF1010A324F4FF425
:101540008068DFF8C8904FEA5606EAD199F81A3059
:1015500099F81B401C1B012C28D045463046FFF74C
:10156000B9FEC7F81480D9F80400FFF7C7FEC7F822
:101570001080D9F80400FFF7C1FEA31E224A4FF4E1
:1015800080644BB17D614868FFF7B8FE3D614868F3
:10159000FFF7B4FE013BF1E74FF4006313615461C0
:1015A0004868FFF7ABFE146148680FE04FF4006332
:1015B0003B613046FFF78EFEC7F81480D9F804006F
:1015C000FFF79CFEC7F81080D9F80400FFF796FEDD
:1015D0000D4B4FF480625A614868FFF78FFE1A6125
:1015E0004868FFF78BFE4FF4006058615A61486805
:1015F000FFF784FE1A614868FFF780FE4FF400523F
:101600001A61BDE8F08700BF000C01405C040020B7
:10161000F8B58349834B044648784FF400654FF48E
:1016200080621D615A61002857D04FF400501A6142
:101630005A611A615D615A611A615A611A611861D1
:10164000C87E01EB4000808C18B15A6101381A61E4
:10165000FAE7CB7E734E0B441D7F4FF48067013D4C
:101660003DB12046FFF736FE64087761013D3761E2
:10167000F6E7CB7E01EB43018D8E6A49C5B120466A
:10168000FFF728FE4FF480624FF400534A610A616D
:101690000B616B1E63484FF480641BB14A61013BD0
:1016A0000A61F7E74FF4006303614461046109E0F4
:1016B0004FF400630B612046FFF70CFE4FF480638C
:1016C0004B610B61574B4FF480624FF400615A61DC
:1016D0001A6159615A611A619DE04868FFF70EFE70
:1016E0001A614868FFF70AFE5A614868FFF706FE6C
:1016F0001A614868FFF702FE5D615A614868FFF7AA
:10170000FDFD1A614868FFF7F9FD5A614868FFF767
:10171000F5FD1A614868FFF7F1FD4FF400501861BC
:10172000C87E01EB4000858C4DB15A614868FFF7D7
:10173000E5FD1A614868FFF7E1FD013DF4E7CB7E66
:10174000384E0B441D7F4FF48067013D6DB120463C
:10175000FFF7C0FD77614868FFF7D0FD3761486843
:10176000FFF7CCFD6408013DF0E7CB7E2C4F01EB89
:1017700043039D8E2B4E45B32046FFF7ABFD4FF440
:10178000806272617868FFF7B9FD32617868FFF7AF
:10179000B5FD4FF4005333616B1E224C4FF480654E
:1017A0004BB172614868FFF7A9FD32614868FFF7E5
:1017B000A5FD013BF1E74FF40063236165614868D3
:1017C000FFF79CFD256148680DE04FF4006333612D
:1017D0002046FFF77FFD4FF4806373617868FFF761
:1017E0008DFD33617868FFF789FD0E4B4FF4806201
:1017F0005A614868FFF782FD1A614868FFF77EFD6D
:101800004FF4006058615A614868FFF777FD1A612C
:101810004868FFF773FD4FF400521A61F8BD00BF2E
:101820005C040020000C01402DE9F74FA64CA74BAB
:101830000646607889464FF480624FF40061196172
:101840005A61002800F0DA801A6159615A611A6100
:101850005A611A6194F81B809C49B8F1000F04D0BA
:101860005A6108F1FF381A61F6E77008FFF732FD98
:101870004FF480654D61FFF739FD0D610746B008F3
:10188000FFF728FD4D61FFF731FD82460D61F0083D
:10189000FFF720FD4D61FFF729FD800040EA47007A
:1018A0004AEA0007012F0D6105D04FF400630B6178
:1018B0004D610D6182E0B00745D54246AB46884692
:1018C0002B464FF01F0AC8F8143080490193FFF7E8
:1018D0000DFDC8F810B042EAC070BAF1010A4FF429
:1018E00080654FEA5002019BEDD1A37E94F81B80E6
:1018F000C8EB0308B8F1010F16D04D61FFF7F6FCF5
:10190000AC468E460D61A8F1020370494FF4806524
:101910002BB1CEF814C0013BCEF810C0F5E74FF460
:1019200000630B614D6105E04FF400630B614D6195
:10193000FFF7DCFC0D6142EAC072B9F1000F3DD047
:10194000C9F800203AE0D9F800904FF01F0B484644
:10195000FFF7C0FCBBF1010B4D61DFF870814FF464
:10196000806A0D614FEA5909F1D1A37EE17E591ACF
:10197000012918D04846FFF7ADFC5046C8F814A01E
:101980008B1EC8F810A0514A4FF480612BB1C8F8E3
:101990001400013BC8F81000F5E74FF40063136131
:1019A000516111610AE04FF40063C8F810304846F5
:1019B000FFF790FCC8F814A0C8F810A0434B4FF4F0
:1019C00080624FF400615A611A6159615A613106AF
:1019D0001A614FF400521A6148BF3D4B3B4A48BF61
:1019E0005B684FF4806148BFA360237B13F1FF3332
:1019F00002D351611161F9E7F8B25FE16068FFF766
:101A00007DFC1A616068FFF779FC59615A61606872
:101A1000FFF774FC1A616068FFF770FC5A61606838
:101A2000FFF76CFC1A616068FFF768FCE77E2749E6
:101A30004FB15A616068FFF761FC1A616068FFF797
:101A40005DFC013FF3E77008FFF744FC4FF480654D
:101A50004D616068FFF752FCFFF748FC0D6183465B
:101A60006068FFF74BFCB008FFF734FC4D6160681D
:101A7000FFF744FCFFF73AFC0D6182466068FFF710
:101A80003DFCF008FFF726FC4D616068FFF736FC6F
:101A9000FFF72CFC0D6103466068FFF72FFC9800F0
:101AA00040EA4B004AEA0003012BDFF81C80019357
:101AB00010D04FF400630B614D61D8F80400FFF7BC
:101AC0001DFC0D61C5E000BF5C040020000C01405E
:101AD000001000E0B20767D50A464FF01F0B4FF425
:101AE000806151616068FFF709FCFFF7FFFB15613A
:101AF00003466068FFF702FCBBF1010B47EAC377BE
:101B0000DFF8C081DFF8C4A14FEA5707E7D19AF8A0
:101B10001A309AF81B209A1A012A2AD0C8F81410F1
:101B2000DAF80400FFF7EAFBFFF7E0FBC8F8101053
:101B30000546DAF80400FFF7E1FB8A46931E614A86
:101B40004FF480615BB1C8F814A06068FFF7D6FB62
:101B5000C8F810A06068FFF7D1FB013BEFE74FF436
:101B60000063136151616068FFF7C8FB1161606831
:101B700010E04FF40063C8F81030C8F81410DAF819
:101B80000400FFF7BBFBFFF7B1FBC8F810100546D8
:101B9000DAF80400FFF7B2FB47EAC577B9F1000FA6
:101BA0005BD0C9F8007058E08A46D9F800904FF031
:101BB0001F0B4846FFF78EFBCAF8145060684FF4BD
:101BC0008061FFF79BFBCAF810506068FFF796FB37
:101BD000BBF1010B3B4FDFF8F4804FEA5909E8D124
:101BE00098F81A3098F81B505D1B012D25D04846F7
:101BF000FFF770FB7961D8F80400FFF77FFB3961CC
:101C0000D8F80400FFF77AFBAB1E2E4A4FF480652C
:101C10004BB179616068FFF771FB39616068FFF76C
:101C20006DFB013BF1E74FF40063136155616068A0
:101C3000FFF764FB156160680DE04FF400633B61E2
:101C40004846FFF747FB7961D8F80400FFF756FBD9
:101C50003961D8F80400FFF751FB1A4B4FF480624A
:101C60005A616068FFF74AFB1A616068FFF746FB3C
:101C70004FF4006159615A616068FFF73FFB1A61D8
:101C80006068FFF73BFB4FF400521A61330648BF10
:101C90000D4B4FF4806142BF5A680C4B9A60237B16
:101CA000084A4BB151616068FFF728FB1161606819
:101CB000FFF724FB013BF4E79DF8040003B0BDE807
:101CC000F08F00BF000C0140001000E05C04002019
:101CD000024B9868C0F3C020704700BF000C014061
:101CE000044B10F0010F4FF4006214BF1A615A61E7
:101CF000704700BF000C0140013800D0FCE770477E
:101D00001FB510220021684603F04DFD4FF400631B
:101D10000093694602230348039300F05FFC05B07B
:101D20005DF804FB000C01401FB51022002168463D
:101D300003F039FD4FF4006201238DE80C00694681
:101D400002230348039300F049FC05B05DF804FB4F
:101D5000000C014000232DE9F0411A4605460F4CC6
:101D60000F4F4FF40066BDB113B90A780823013153
:101D7000D0074FF480684CBF26616661C4F81480B8
:101D80007868FFF7B9FFC4F810807868FFF7B4FFF0
:101D9000013D5208013BE6E7BDE8F081000C01403F
:101DA0005C0400202DE9F84310F03F0408BF4024F4
:101DB000030623D5224FDFF88C80082500214FF43D
:101DC0008066A4B17E61D8F80400FFF795FFFFF7A5
:101DD0007FFF3E610346D8F80400FFF78DFF013D09
:101DE0004FEAC31343EA510104F1FF34E9D1E9405A
:101DF00002F8011B002CE0D1BDE8F883104E114F12
:101E000011F8015BA4F108094FF480682846FFF738
:101E100067FFC6F814807868FFF76EFFC6F8108079
:101E20007868013CFFF768FFA1454FEA550503D0EC
:101E3000002CEBD1BDE8F883002CE1D1BDE8F8839C
:101E4000000C01405C0400202DE9F74F8C4C8D4EB6
:101E500063784FF4006A4FF480680F46C6F810A00C
:101E6000054641084FEA900B4FEAD009C6F81480A6
:101E7000002B00F00B81C6F81080FFF731FFC6F889
:101E800014800846C6F81080FFF72AFFC6F81480B1
:101E90005846C6F810805944FFF722FFC6F8148050
:101EA0004846C6F810802944FFF71AFFC6F8148088
:101EB00001EB0900C6F81080FFF712FFC6F8148086
:101EC000C6F81080C6F814A0C6F81480C6F81080B2
:101ED000C6F810A0C6F81480C6F81080FFF710FFEF
:101EE000434694F818A0674A4FF48061BAF1000F96
:101EF00004D073610AF1FF3A3361F4E75161FFF7EF
:101F0000E7FE116151610646FFF7E2FE1161516182
:101F10008046FFF7DDFE800040EA480040EA060800
:101F2000B8F1010F116172D1AB0734D55646D046D6
:101F30008B4692460B464FF02009CAF81430514A9E
:101F400000934FF48061FFF7C3FECAF810B08044DD
:101F5000B9F101094FEAC07040EA5606009BECD186
:101F60005161FFF7B5FE88EA000010F0010F116122
:101F70000CBF4FF001084FF0080807B13E60237E08
:101F8000404A4FF480611BB15161013B1161FAE796
:101F9000FFF7CAFE26E0267E1EB15161013E1161A7
:101FA000FAE7DFF8E0B0FFF7BFFE39684FF480636F
:101FB000202708460093FFF793FE009B013FCBF8D4
:101FC00014300E44DFF8BC904FF4806ACBF8103028
:101FD0004FEA5101EDD13046FFF782FEC9F814A057
:101FE000C9F810A02F0648BF274B227B44BF5B686F
:101FF000A360002A00F0E881224B4FF40061596190
:102000004FF48061013A59611961FBD1DCE1B8F10B
:10201000020F02D0B8F1040F2BD1637E23B9237EC7
:10202000184A4FF480610AE0AE07F8D5154A21231B
:102030004FF48061013B51611161FBD1EFE71BB1AE
:102040005161013B1161FAE7FFF76EFE637E002BE1
:1020500000F0BA81AC0700F1B7810A4B4FF400627F
:102060005A614FF480612122013A59611961FBD113
:10207000AAE1237E2133013B51611161FBD1A1E132
:102080005C040020000C0140001000E06068FFF7D5
:1020900033FEC6F810806068FFF72EFE2846FFF773
:1020A0001FFEC6F814806068FFF726FEC6F8108091
:1020B0006068FFF721FE0846FFF712FEC6F814809D
:1020C0006068FFF719FEC6F810806068FFF714FE1D
:1020D00058465944FFF704FEC6F814806068FFF7BD
:1020E0000BFEC6F810806068FFF706FE48462944DC
:1020F000FFF7F6FDC6F814806068FFF7FDFDC6F82F
:1021000010806068FFF7F8FD01EB0900FFF7E8FDBC
:10211000C6F814806068FFF7EFFDC6F810806068AD
:10212000FFF7EAFDC6F814A0C6F814806068FFF750
:10213000E3FDC6F810806068FFF7DEFDC6F810A06A
:10214000C6F814806068FFF7D7FDC6F81080606895
:10215000FFF7D2FDFFF7D4FD3346464694F81890BA
:102160009E4A4FF48061B9F1000F0AD05E61606849
:10217000FFF7C2FD1E616068FFF7BEFD09F1FF3980
:10218000EEE751616068FFF7B7FDFFF7A1FD116150
:1021900082466068FFF7B0FD51616068FFF7ACFDF3
:1021A000FFF796FD116180466068FFF7A5FD51615C
:1021B0006068FFF7A1FDFFF78BFD116103466068C2
:1021C000FFF79AFD980040EA480040EA0A08B8F193
:1021D000010F834E40F0A680A8074CD54E46C84656
:1021E0004FF0200B4FF4806353616068FFF784FD6C
:1021F000FFF76EFD116103466068FFF77DFDBBF1DF
:10220000010B98444FEAC373DFF8D091DFF8D0A1F7
:1022100043EA5606E6D14FF48063C9F81430DAF881
:102220000400FFF769FDFFF753FD4FF48062C9F822
:1022300010200346DAF80400FFF75EFD88EA030881
:1022400018F0010F0CBF4FF001084FF0080807B15C
:102250003E60237E614A4FF480614BB151616068FA
:10226000FFF74AFD11616068FFF746FD013BF4E7A7
:10227000FFF75AFD3BE0367E4EB151616068FFF7D3
:102280003BFD11616068FFF737FD013EF4E7FFF7A2
:102290004BFD32463968DFF844A120234FF4806BB0
:1022A000084601920093FFF71BFDCAF814B060685E
:1022B000FFF722FDCAF810B06068FFF71DFD009B14
:1022C000019A013B0A44454E4FF48069444F4FEA5E
:1022D0005101E5D11046FFF703FDC6F81490786868
:1022E000FFF70AFDC6F810907868FFF705FD29068C
:1022F00048BF3C4B227B44BF5B68A360002A63D08D
:10230000364B4FF4006159614FF480610D465D61B9
:102310006068FFF7F1FC19616068FFF7EDFC013AB6
:10232000F5D151E0B8F1020F02D0B8F1040F3CD161
:10233000637E23B9237E294A4FF4806111E0AA0706
:10234000F8D54FF480610E46244A21235661606817
:10235000FFF7D2FC11616068FFF7CEFC013BF5D1BD
:10236000E8E74BB151616068FFF7C6FC1161606836
:10237000FFF7C2FC013BF4E7FFF7D6FC637E1BB31B
:10238000AB0721D44FF480610D46144B4FF400622B
:102390005A6121225D616068FFF7AEFC19616068D7
:1023A000FFF7AAFC013AF5D10EE00D46337E21334A
:1023B00055616068FFF7A0FC11616068FFF79CFC45
:1023C000013BF5D1FFF7B0FC044B4FF400625FFA1C
:1023D00088F01A6103B0BDE8F08F00BF000C014027
:1023E0005C040020001000E038B50E4B054618785C
:1023F0004FF47A73B3FBF0F30B4A1068B0FBF3F0C1
:1024000000F08CF8044658B90F2D09D80246294629
:102410004FF0FF3000F042F8044B20461D6038BDFD
:10242000012038BD0400002008000020000000202A
:1024300008B5074A0320136843F01003136000F047
:102440001BF80020FFF7D0FF01F0D2FE002008BDEE
:1024500000200240034A0449136809780B441360C2
:10246000704700BFA404002004000020014B18683E
:10247000704700BFA4040020074A0002D36800F49C
:10248000E06023F4E0631B041B0C43F0BF6343F4E0
:1024900000330343D360704700ED00E030B5174BC5
:1024A000DB68C3F30223C3F107041D1D042C28BFFE
:1024B0000424062D4FF0010505FA04F404F1FF345D
:1024C0008CBF033B00230C409C4005FA03F3013B07
:1024D0001A40002842EA04024FEA0212AFBF00F19C
:1024E0006040074B00F00F00D2B2A5BFD2B200F59A
:1024F00061401A5480F8002330BD00BF00ED00E0B9
:1025000014ED00E04209012300F01F0003FA00F07F
:10251000014B43F82200704700E100E0B0F1807FFA
:102520000BD2074B074A0138F021586082F823107C
:102530000020072298601A6070470120704700BF92
:1025400010E000E000ED00E010B590F82130022B23
:1025500003D004238363012010BD0268136823F0B5
:102560000E0313600268136823F00103136003680D
:10257000184A934213D01432934212D01432934229
:1025800011D01432934211D01432934211D014322C
:1025900093420CBF4FF480134FF080730BE0012384
:1025A00009E0102307E04FF4807304E04FF48053F8
:1025B00001E04FF48033084A00245360012380F87F
:1025C0002130436B80F8204013B19847204610BD5E
:1025D000184610BD080002400000024000232DE90B
:1025E000F74F1D46704E714ADFF8D0E1D1F800C0B8
:1025F0003CFA05F400F0D4800124AC4034EA0C0726
:1026000040F0CC80D1F804C0BCF1120F2FD014D808
:10261000BCF1020F28D007D8BCF1000F2AD0BCF1C2
:10262000010F30D1CB682EE0BCF1030F1AD0BCF102
:10263000110F28D1CB68043325E05D4FBC4519D07C
:1026400006D8DFF87C81C44514D008F5803806E050
:10265000F4450FD0574FBC450CD0DFF86881C44516
:1026600011D107E000230EE0CB6808330BE0CB6804
:102670000C3308E08B682BB1012B0CBF0461446163
:10268000082300E00423FF2C97BF8346A5F1080C24
:10269000D0F800904FEA850C84BFD0F804904FEA40
:1026A0008C0C4FF00F0808FA0CFA29EA0A0903FA11
:1026B0000CFC88BF00F1040B49EA0C09CBF8009030
:1026C0004F68FF006AD5D6F818C005F003094CF032
:1026D000010CC6F818C0D6F818C0374F0CF0010C22
:1026E000CDF804C0DDF804C025F0030C0CF1804CDB
:1026F0000CF5803CDCF808A04FEA890908FA09F8D3
:10270000B8422AEA080810D007F58067B8420FD00F
:1027100007F58067B8420ED007F58067B8420CBF56
:102720004FF0030A4FF0040A07E04FF0000A04E0FC
:102730004FF0010A01E04FF0020A0AFA09F949EAEA
:102740000809CCF808904F68D2F800C0FF034CBFCE
:1027500044EA0C0C2CEA040CC2F800C04F68D2F812
:1027600004C0BF034CBF44EA0C0C2CEA040CC2F8B2
:1027700004C04F68D2F808C0FF024CBF44EA0C0CFA
:102780002CEA040CC2F808C04F68D2F80CC0BF0293
:102790004CBF44EA0C042CEA0404D460013525E75C
:1027A00003B0BDE8F08F00BF0010024000040140FC
:1027B000000021100000321000080140000031101C
:1027C000000011100000221002B9090401617047D5
:1027D000F0B5044687B000286ED090F8293203F097
:1027E000FF021BB980F8282201F006FF25466E463D
:1027F000032384F8293255F8100B01F01BF90FCD93
:102800000FC62B6825463360271D97E80E0055F844
:10281000100B01F0FFF8064618B1022384F82932A4
:102820004AE00146206801F00FF9304661684FF038
:10283000010EC3B2994200F101000CD904EB43121E
:1028400082F829E082F82830D38682F82B609663DC
:10285000D6631664EDE700221046D3B2994202F126
:1028600001020FD904EB431686F828310A335B01C5
:1028700086F8290186F82B01C6F83801C6F83C0114
:10288000E050EAE76E460FCD0FC62B68336097E83D
:102890000E00206801F0DAF80123054620B102227B
:1028A00084F829221D4608E084F8240084F829329F
:1028B000206801F088FB00E00125284607B0F0BD44
:1028C00010B590F828320446012B0ED0012180F873
:1028D000281201F0AEFF206801F073FB206801F0C0
:1028E000A0F8002084F8280210BD022010BD10B509
:1028F00090F828220446012A0BD0012280F82822D1
:1029000084F82410006801F056FB002084F82802A7
:1029100010BD022010BD70B511F0800F044601F00B
:1029200007004FEA401507D005F12801012625448C
:10293000214485F8296006E005F5947100262544B8
:10294000214485F829610A614A78C0B20870CB70C9
:1029500002B1C881022B04BF00230B7194F8283206
:10296000012B09D0012384F82832206801F089F86E
:10297000002084F8280270BD022070BD01F007031A
:1029800011F0800F10B54FEA4312044607D002F150
:10299000280101440244012082F8290006E002F5E2
:1029A000947101440244002082F829010B7094F8CC
:1029B0002832012B09D0012384F82832206801F045
:1029C000DAF9002084F8280210BD022010BD70B58D
:1029D00001F007014D014419002684F82811C4F8BC
:1029E0003C21C4F84031C4F8446184F8296105F5FC
:1029F00094710144006801F0FEFA304670BD70B574
:102A000001F007014D01441923640026012384F8D5
:102A10002810E263666484F8293005F12801014436
:102A2000006801F0E8FA304670BD2DE9F84304462D
:102A3000006801F0CAFA030416D4206801F0C5FA50
:102A4000470540F1A08122682046B2F8443023F4C3
:102A500080631B041B0CA2F8443001F004FE00212B
:102A60002046FFF744FF8EE104F50C772068B0F8AC
:102A700044301B04E1D5B0F8441089B211F00F06C0
:102A800040F0C48001F01001038889B29BB281BB81
:102A900023F4E14323F070036FEA43436FEA5343A7
:102AA0009BB20380206894F82830B0F8502092B28E
:102AB000023202EBC30300EB4303B3F80034E26BD2
:102AC000C3F3090363641344E363204601F0C0FDCC
:102AD00094F82430002BC9D0226C002AC6D194F877
:102AE0002430216843F08003A1F84C3084F824207E
:102AF000BCE703F40065ADB20DB3B0F8503094F804
:102B000028219BB2063303EBC20300EB4303B3F867
:102B10000034B4F82E21C3F30903C4F84431394614
:102B200001F04AFB22682046138823F070031B053E
:102B30001B0D43F08003138001F07CFD96E71E041B
:102B400094D5038823F070031B051B0D43F080030D
:102B50000380206894F82821B0F850309BB20633E7
:102B600003EBC20300EB4303B3F80034C3F30903E0
:102B7000C4F844318BB1D4F83C1171B1B4F82E21B2
:102B800001F01AFBD4F83C21D4F84431294613440F
:102B9000C4F83C31204601F053FD2268D4F83811C6
:102BA000B2F850309BB2134461B9B3F80C2422F44C
:102BB000F8421204120CA3F80C24B3F80C246FEAA8
:102BC00042420EE03E2905D84A08C80748BF0132F4
:102BD000920208E04A09C90608BF02F1FF326FEA13
:102BE000C2626FEA524292B2A3F80C2422681388A0
:102BF00023F4804323F070031B041B0C83F4405325
:102C000043F4004343F0800313802FE730F826801D
:102C10001FFA88F818F4004F00F0828030F8263050
:102C20004FEA461923F070031B051B0D43F0800388
:102C300020F8263004EB090191F834312068BBB943
:102C4000B0F8503091F828219BB2063303EBC20351
:102C500000EB4303B3F80054C5F30905002D40D041
:102C6000B1F82E212B46D1F83C1101F0A5FA38E03D
:102C700091F8283130F82320DB0012F4804FB0F8AF
:102C8000502092B20CD00232134400EB4303B3F84D
:102C90000054C5F309059DB12B46B1F830210BE076
:102CA0000632134400EB4303B3F80054C5F309059F
:102CB00035B12B46B1F83221D1F83C1101F07CFA44
:102CC00004EB090393F82811226832F8213023F02D
:102CD000F0031B051B0D43F4004343F0C00322F82F
:102CE000213004EB0901D1F84431D1F83C212B44C7
:102CF000C1F84431D1F840312A44C1F83C211BB11C
:102D0000D1F83801854206D2A14499F8281120460D
:102D100001F096FC04E091F828112046FFF757FED9
:102D200018F0800F3FF4A2AE2268204632F8263019
:102D30009BB223F4E14323F070036FEA43436FEA4D
:102D400053439BB222F82630216804EB4616B1F8B3
:102D5000502096F8283092B2023202EBC30301EB06
:102D60004303B3F80024F36BC2F3090272641A44FC
:102D7000336CF26396F8281013B901F069FC75E61C
:102D8000FFF73DFE72E6206801F01FF9470408D501
:102D90002268B2F8443023F480431B041B0CA2F8D1
:102DA0004430206801F011F9860408D52268B2F891
:102DB000443023F400531B041B0CA2F84430206859
:102DC00001F003F9C5041DD522682046B2F8403051
:102DD00023F004031B041B0CA2F840302268B2F855
:102DE000403023F008031B041B0CA2F8403001F014
:102DF0005DFC2268B2F8443023F480531B041B0CA2
:102E0000A2F84430206801F0E0F8000529D52268D6
:102E1000B2F840309BB243F00803A2F84030226879
:102E2000B2F8443023F400631B041B0CA2F84430B6
:102E30002268B2F840309BB243F00403A2F840305D
:102E4000206801F0C2F8C10408D52268B2F8443005
:102E500023F480531B041B0CA2F84430204601F0DD
:102E600015FC206801F0B1F882050BD522682046D8
:102E7000B2F8443023F400731B041B0CA2F8443056
:102E800001F0EDFB206801F0A0F8C30508D5226829
:102E9000B2F8443023F480731B041B0CA2F84430B6
:102EA000BDE8F88338B5436801F007059D42044644
:102EB00028D80B0608D56B0103F128010122034431
:102EC000014483F8292007E04B0103F594710022A7
:102ED0000344014483F8292101238B700D7094F879
:102EE00028229A4210D084F82832206800F0FBFF94
:102EF00025B904F50C71206801F06BF8002084F806
:102F0000280238BD012038BD022038BD38B54368DD
:102F100001F00F029A42044626D801F0070311F08F
:102F2000800F4FEA431207D002F128010144024406
:102F3000012082F8290006E002F594710144024460
:102F4000002082F8290100258D700B7094F828323A
:102F5000012B0BD0012384F82832206800F0E3FF16
:102F600084F82852284638BD012038BD022038BDDB
:102F700011F0800F1BBF01F0070100EB411000EBC7
:102F80004110283008BF00F5947012B90273C38055
:102F900004E0012203811B0C02734381002070476F
:102FA0002DE9F3410546002800F08D810368DB0719
:102FB00003D42B689F0749D48BE09F4C636803F0D0
:102FC0000C03042B07D0636803F00C03082B09D112
:102FD0006368DE0306D523689C03EAD56B68002B83
:102FE000E7D170E16B68B3F5803F09D00BB9236876
:102FF0000AE0B3F5A02F236806D143F480232360B1
:10300000236843F4803305E023F48033236023688E
:1030100023F4802323606B6863B1FFF727FA064629
:1030200023689803C5D4FFF721FA801B6428F7D9D9
:10303000032049E1FFF71AFA064623689903B8D539
:10304000FFF714FA801B6428F7D9F1E77A4C63681C
:1030500013F00C0F07D0636803F00C03082B11D199
:103060006368DA030ED423689B0703D52B69012B11
:1030700040F0298123686A6923F0F80343EAC20318
:10308000236026E02A696D4BB2B101221A60FFF776
:10309000EDF906462368684A9F0705D4FFF7E6F96D
:1030A000801B0228F6D9C3E71368696923F0F80387
:1030B00043EAC10313600CE01A60FFF7D7F9064634
:1030C0002368980705D5FFF7D1F9801B0228F7D9A7
:1030D000AEE72B68190703D42B685A072DD48DE06F
:1030E000AA69554C564BDAB101221A60FFF7BEF9B6
:1030F0000646636A9B0705D4FFF7B8F9801B0228D0
:10310000F7D995E74F4B4FF4FA521B68B3FBF2F334
:10311000019300BF019B5A1E0192002BF9D1DBE7FE
:103120001A60FFF7A3F90646636A9F07D4D5FFF735
:103130009DF9801B0228F7D97AE73F4CE369DE004E
:103140000AD4E369012743F08053E361E36903F0A4
:1031500080530093009B00E000273B4E3368D80566
:1031600003D5EB68012B11D119E0336843F4807368
:103170003360FFF77BF980463368D905F1D4FFF758
:1031800075F9C8EB00006428F6D951E70BB9236A3A
:1031900009E0052B236A06D143F004032362236A66
:1031A00043F0010305E023F001032362236A23F0C7
:1031B00004032362EB686BB1FFF758F941F28838DA
:1031C0000646236A9A070DD4FFF750F9801B404545
:1031D000F7D92DE7FFF74AF941F288380646236A06
:1031E0009B0705D457B1E36923F08053E36105E001
:1031F000FFF73CF9801B4045F1D919E7E86908B9A8
:10320000002061E00C4B5A681C4602F00C02082AB0
:103210004AD00E4E00230228336039D1FFF726F939
:10322000074623680449980112D5FFF71FF9C01B10
:103230000228F6D9FCE600BF00100240000042421E
:1032400080044242080000200070004060004242BA
:103250002B6AB3F5803F05D14B6823F40032AB688D
:1032600013434B60296A6A6A63680A4323F4741340
:103270001343636001233360FFF7F8F805462368C2
:103280009A01BDD4FFF7F2F8401B0228F7D9CFE628
:10329000FFF7ECF8054623689B01B1D5FFF7E6F888
:1032A000401B0228F7D9C3E601280DD058682B6AC5
:1032B00000F480329A4206D16B6A00F47010C01A92
:1032C00018BF012000E0012002B0BDE8F08100BF7E
:1032D000184B70B503F110052E4686B002AC22469D
:1032E00018685968083303C2AB421446F7D13388D3
:1032F0001149ADF804304B6803F00C02082A16D1CE
:10330000C3F3834206A80244DB0312F8100C0BD56A
:103310004A680A4B5843C2F3404306AA134413F8C1
:10332000143CB0FBF3F003E0054B584300E00348C6
:1033300006B070BDD65700080010024000127A0097
:1033400000093D002DE9F0410D46044610B9012069
:10335000BDE8F081464A136803F007038B4218D397
:103360002368980720D513F0040F424B1EBF5A68FC
:1033700042F4E0625A602268110742BF5A6842F480
:1033800060525A605A6822F0F001A2680A435A60FB
:103390000AE0136823F007030B431360136803F07C
:1033A00007039942D3D1DBE72368DA0706D4304A12
:1033B000136803F007039D4229D332E063682D4E62
:1033C000012B326802D112F4003F06E0022B02D139
:1033D00012F0007F01E012F0020FB8D0726841F2E3
:1033E000883822F0030213437360FFF73FF8074663
:1033F0007368626803F00C03B3EB820FD7D0FFF75A
:1034000035F8C01B4045F3D90320BDE8F0811368AF
:1034100023F007032B431360136803F007039D4257
:1034200095D12368134D13F0040F05D06B6823F476
:10343000E062E36813436B6023681B0706D56B6883
:10344000226923F4605343EAC2036B60FFF740FF35
:103450006B68094AC3F30313D35CD840074B186069
:10346000074B1868FEF7C0FF0020BDE8F08100BFE1
:103470000020024000100240E85700080800002029
:1034800000000020044B054A5B68C3F30223D35CB1
:10349000034A1068D840704700100240F8570008EF
:1034A00008000020044B054A5B68C3F3C223D35CC9
:1034B000034A1068D840704700100240F8570008CF
:1034C000080000202DE9F34103680546D90756D5C9
:1034D000374CE369DA000AD4E369012743F08053EB
:1034E000E361E36903F080530193019B00E000274F
:1034F000304E3368DB0505D5236A2D4913F440733C
:1035000012D116E0336843F480733360FEF7AEFFE8
:1035100080463368D805EFD4FEF7A8FFC8EB00005B
:103520006428F6D9032040E06A6802F440729342AE
:103530000CD1236A1E4923F440726B681343236243
:10354000EFB1CB6923F08053CB6118E00B6A1A4AC4
:103550000126166023F44070002616600862D90721
:10356000E7D5FEF783FF41F288380646236A9A07BB
:10357000DFD4FEF77BFF801B4045F7D9D2E72B68ED
:103580009B0706D50A494B6823F44042AB681343B6
:103590004B60286810F0100007D0054900204B68E8
:1035A00023F48002EB6813434B6002B0BDE8F08166
:1035B00000100240007000404004424210B5044632
:1035C000002836D00023836290F8513003F0FF02C8
:1035D0001BB980F8502000F02DFE2268022384F8E9
:1035E00051301368002023F04003136094E80E006C
:1035F0001A43E3681A4323691A4363691A43E36968
:103600001A43236A1A43A36A1A43A36903F4007393
:1036100013430B60638B226803F00403536022683A
:10362000D36923F40063D3610123606584F85130CA
:1036300010BD012010BD704730B5036885B05968D2
:103640009A68044602F04105012D03D14D0601D5CB
:10365000036C05E0950705D5080603D52046636C85
:10366000984759E012F0600F56D08D0654D5500699
:1036700016D594F85100002503280AD0606D40F05B
:10368000040060650195D8680190986801900198E0
:1036900006E00295DA6802929B680293029B3BE087
:1036A00092060CD5626D42F001026265002203921F
:1036B0009A6803921A6822F040021A60039B636DB5
:1036C00053B32268536823F0E0035360012384F866
:1036D00051308B071DD02268536823F003035360D9
:1036E000E36C4BB10D4A5A63E06CFEF72DFF18B145
:1036F000636D43F040036365A36C6BB1074A5A6383
:10370000A06CFEF721FF38B1636D43F040036365A1
:1037100002E02046FFF78FFF05B030BD21370008DB
:1037200008B5406A0023C387C386FFF784FF08BD3E
:103730000268D36823F49073D3600268536923F05E
:1037400001035361202380F83A30704738B50546AD
:10375000016819240B6923F44052C36813430B61B9
:103760002B690068A968C26819436B69194322F480
:10377000B05323F00C030B43C36029684B6923F457
:103780004072AB6913434B612A680E4B9A4202D1D7
:10379000FFF788FE01E0FFF775FE60436C68642365
:1037A000A400B0FBF4F0B0FBF3F103FB1100000147
:1037B0003230B0FBF3F32A68DBB203EB0113936002
:1037C00038BD00BF0038014010B5044650B390F832
:1037D000393003F0FF021BB980F8382000F06CFD8F
:1037E0002268242384F83930D368204623F4005318
:1037F000D360FFF7ABFF22680020136923F49043E6
:1038000013612268536923F02A0353612268D36845
:1038100043F40053D3602023E06384F8393084F804
:103820003A3010BD012010BD7047704708B583685D
:103830000169B3F5805F0268836A0DD1526829B9C6
:10384000C2F308021A80836A023303E0D2B21A80FC
:10385000836A013383620AE019B9591C8162526894
:1038600004E0591C8162526802F07F021A70C38D15
:10387000013B9BB2C3859BB90268D36823F0200348
:10388000D3600268D36823F48073D36002685369FD
:1038900023F001035361202380F83A30FFF7C5FF7E
:1038A000002008BD7047000070B502680446136828
:1038B000D1681E0755690CD19E0664D58D0662D568
:1038C00090F83A30222B40F09980BDE87040FFF725
:1038D000ADBF15F0010002D111F4907F53D0DA078B
:1038E00005D5CE0542BFE26B42F00102E2635D07FF
:1038F00004D518B1E26B42F00202E2639A0704D5E4
:1039000018B1E26B42F00402E2631E0704D518B15D
:10391000E26B42F00802E263E26B002A6ED09D0681
:1039200008D5880606D594F83A30222B02D12046D5
:10393000FFF77CFF236820465B69E26B110702D426
:1039400013F040051BD0FFF7F3FE23685A695206B7
:1039500011D55A6922F040025A61636B5BB1284A63
:103960005A63606BFEF7F0FD002847D0606BBDE83E
:103970007040436B18472046FFF794FF70BDFFF778
:1039800091FFE56370BD1E062AD50D0628D594F873
:103990003930212B32D1A368B3F5805F236A0BD174
:1039A0001B88C3F3080353602269236A0AB90233F0
:1039B00000E00133236203E0591C21621B7853604D
:1039C000E38C013B9BB2E384C3B92268D36823F044
:1039D0008003D3602268D36843F04003D36070BD96
:1039E00058060BD54B0609D5D368204623F0400373
:1039F000D360202384F83930FFF716FF70BD00BF75
:103A0000053A000808B5406A0023C385C384FFF760
:103A100049FF08BD84B001A880E80E0004B0002072
:103A20007047B0F840309BB243F43F43A0F84030B9
:103A300000207047B0F8403023F47C535B045B0CEB
:103A4000A0F84030002070470020704784B010B5C7
:103A500003AC84E80E0000220123A0F84030A0F857
:103A60004020A0F84420A0F85020B0F840309BB28D
:103A700043F43F43A0F84030BDE81040104604B086
:103A8000704770B50C78034630F82420C87822F4CB
:103A9000EC4222F070021204120C03280DD8DFE869
:103AA00000F00209070542F4007201E042F4C0622E
:103AB000002003E042F48062FAE7012042F4004271
:103AC00042F0800223F824200D7833F8252045F4B5
:103AD000004492B222F4E04222F0700244F08004EA
:103AE000224323F825200A7B0E78002A7DD14C78CA
:103AF000CA885CB3B3F8505022F00102ADB205F5AC
:103B0000806505EB061492B21A530C7833F8242022
:103B100056060BD533F8242022F0F0021205120DC0
:103B200042F4004242F0C00223F82420CA78097807
:103B3000012A33F8212000F0C48022F4E04222F070
:103B400040021204120C82F020020DE1B3F8504042
:103B500022F00102A4B204F5816404EB061492B2CF
:103B6000E252B3F850200C7892B20D6902F20C4286
:103B700002EB04124DB9D45A24F4F8442404240C62
:103B8000D452D45A6FEA44440EE03E2D05D86C0856
:103B9000ED0748BF0134A40208E06C09EE0608BF37
:103BA00004F1FF346FEAC4646FEA5444A4B2D452FF
:103BB0000C7833F8242055040BD533F8242022F058
:103BC000F0021205120D42F4404242F0800223F846
:103BD0002420097833F8212022F4804222F0700258
:103BE0001204120C82F44052BEE033F8262022F474
:103BF000F8721205120D42F4014242F0800223F8DD
:103C00002620B3F850200C7892B202F5806202EBC5
:103C100004120C8924F00104A4B2D452B3F8502049
:103C20000C7892B202F5816202EB04124C8924F006
:103C30000104A4B2D4524A780C78002A46D133F851
:103C4000242052040BD533F8242022F0F002120570
:103C5000120D42F4404242F0800223F824200C78F6
:103C600033F8242056060BD533F8242022F0F00236
:103C70001205120D42F4004242F0C00223F8242043
:103C80000C7833F8242022F0F0021205120D42F4D1
:103C9000004242F0C00223F824200C7833F824209C
:103CA00022F4804222F070021204120C82F440527C
:103CB00042F4004242F0800223F82420097833F8CD
:103CC000212022F0C0021205120D4DE033F824200D
:103CD00055040BD533F8242022F0F0021205120D02
:103CE00042F4404242F0800223F824200C7833F85A
:103CF000242052060BD533F8242022F0F0021205BE
:103D0000120D42F4004242F0C00223F824200C7845
:103D100033F8242022F0F0021205120D42F4404242
:103D200042F0800223F82420CA780C78012A33F864
:103D300024201DBF22F4E04222F04002120422F0AF
:103D4000C00215BF120C120582F02002120D42F4BF
:103D5000004242F0800223F82420097833F8212021
:103D600022F0F0029204920C42F4004242F08002EF
:103D700023F8212070BD10B50C7B4A780B781CBB52
:103D800082B130F8232052065BD530F8232022F090
:103D9000F0021205120D42F4004242F0C00220F877
:103DA00023204EE030F82320540440F18D8030F879
:103DB000232022F0F0021205120D42F4404242F09C
:103DC000800220F823207FE0002A42D130F823200F
:103DD00052040BD530F8232022F0F0021205120D08
:103DE00042F4404242F0800220F823200A7830F862
:103DF00022305C060BD530F8223023F0F0031B058F
:103E00001B0D43F4004343F0C00320F822300A782E
:103E100030F8223023F0F0031B051B0D43F4004360
:103E200043F0C00320F822300A7830F8223023F023
:103E3000F0039B049B0C43F4004343F0800320F801
:103E400022300A7830F8223023F0C0031B051B0D06
:103E500041E030F8232052040BD530F8232022F023
:103E6000F0021205120D42F4404242F0800220F8A6
:103E700023200A7830F822305B060BD530F8223048
:103E800023F0F0031B051B0D43F4004343F0C00374
:103E900020F822300A7830F8223023F0F0031B0596
:103EA0001B0D43F4404343F0800320F822300A788E
:103EB00030F8223023F0C0031B051B0D43F40043F0
:103EC00043F0800320F822300A7830F8223023F0C3
:103ED000F0039B049B0C43F4004343F0800320F861
:103EE0002230002010BD4B780A7853B130F82230D0
:103EF00023F4E04323F040031B041B0C83F0100366
:103F000009E030F8223023F4804323F070031B04CF
:103F10001B0C83F4805343F4004343F0800320F8E8
:103F20002230002070470B7B002B42D14B780A785F
:103F3000F3B130F822305B060BD530F8223023F095
:103F4000F0031B051B0D43F4004343F0C00320F8AE
:103F50002230CB78012B2CD00A7830F8223023F491
:103F6000E04323F040031B041B0C83F020031AE002
:103F700030F822305B040BD530F8223023F0F00308
:103F80001B051B0D43F4404343F0800320F822300F
:103F90000A7830F8223023F4804323F070031B04A6
:103FA0001B0C83F4405343F4004343F0800320F898
:103FB00022300020704711B98023A0F84C30002037
:103FC00070470020704700207047B0F8440080B26E
:103FD00070470020704700EB4202013302F5806217
:103FE0005B0802EB83039A4204D031F8020B22F8FB
:103FF000040BF8E7704770B50E464978044601296E
:10400000B3693269307B5ED1934283BF9B1AB3613F
:104010001346002298BFB2619DB278B92B46F28850
:1040200071692046FFF7D7FFB4F8503032789BB261
:1040300003F2044303EB0213E55238E0337834F81B
:104040002320190112F0400F08D0B4F8502092B28A
:1040500002F20C428B18E552728907E0B4F8503036
:104060009BB203F204430B44E55232892B4671693B
:104070002046FFF7B0FF7378327853B934F8223016
:1040800023F0F0031B051B0D43F4004343F0C00372
:104090000BE0012B0BD134F8223023F0F0031B0589
:1040A0001B0D43F4404343F0800324F82230327860
:1040B00034F8223023F4E04323F040031B041B0CAC
:1040C00083F0300370E093428BBF9B1A0022B361F0
:1040D000B26188BF1346327840B321BBB4F85010A8
:1040E00089B201F2044101EB02114BB9625A22F488
:1040F000F8421204120C6252625A6FEA42420EE017
:104100003E2B05D85A08D80748BF0132920208E072
:104110005A09DD0608BF02F1FF326FEAC2626FEA98
:10412000524292B262527178327839BBB4F8501070
:1041300089B201F20C4101EB02125BB9135B23F46B
:10414000F8431B041B0C1353135B6FEA43436FEAE2
:1041500053431CE03E2B05D85908D80748BF01310E
:10416000890208E05909DB0608BF01F1FF316FEA57
:10417000C1616FEA514189B211530AE0012908D1A6
:10418000B4F8501089B201F20C4101EB02129BB25B
:104190001353327834F8223023F4804323F0700331
:1041A0001B041B0C83F4405343F4004343F080038F
:1041B00024F82230002070BD00EB4202F0B502F579
:1041C00080625D08084617462E4602304EB137F829
:1041D000044B013EA4B200F8024C240A00F8014C42
:1041E000F3E7DB0744BF32F8253001F81530F0BDA6
:1041F0000E4B82B09A6942F001029A619A6902F00C
:1042000001020092009ADA6942F08052DA61DB69B9
:10421000074A03F080530193019B536823F0E06346
:1042200043F00073536002B0704700BF00100240BB
:104230000000014010B5044686B01022002102A8FB
:1042400001F0B1FA22681A4B9A422ED103F560436D
:104250009A6902A942F480529A619A69154802F457
:1042600080520092009A9A69002442F004029A61F6
:104270009B6903F004030193019BA0230293022393
:10428000039303230593FEF7A9F9402302A90948E4
:10429000029303940494FEF7A1F9232022462146B9
:1042A000FEF7FCF82320FEF72DF906B010BD00BF85
:1042B000003001400008014010B5044686B01022CD
:1042C000002102A801F06FFA22681B4B9A4230D1FC
:1042D00003F558439A6902A942F480429A619A69A7
:1042E000164802F480420092009A9A69002442F033
:1042F00004029A619B6903F004030193019B4FF44C
:10430000007302930223039303230593FEF766F9D8
:104310004FF4806302A90948029303940494FEF7C2
:104320005DF9252022462146FEF7B8F82520FEF744
:10433000E9F806B010BD00BF003801400008014098
:104340007047FEE7FEE7FEE7FEE7704770477047FD
:10435000FEF780B80148FEF768BB00BF8807002061
:104360000148FFF769B900BF340A00200148FFF790
:104370009BBA00BFF40900200F4B1A6842F00102FB
:104380001A6059680D4A0A405A601A6822F084720D
:1043900022F480321A601A6822F480221A605A6865
:1043A00022F4FE025A604FF41F029A60044B4FF051
:1043B00000629A60704700BF001002400000FFF8E2
:1043C00000ED00E0114A124B516801F00C01042984
:1043D00001D0082901D00F490EE051685068C1F39F
:1043E0008341C00301F1020102D55068800301D569
:1043F000094800E007484143196052680749C2F381
:104400000312895C1A68CA401A60704700100240A3
:104410000800002000127A0000093D00E85700085B
:1044200008B5FCF72DFF002000F020FC002000F074
:104430001EFC002000F01CFC0028FAD0084C4FF4B1
:1044400000554FF4FA706561FBF7FEFE002225610E
:104450001146044800F0EEFB034B1860FEE700BF76
:104460000010014085490008A804002008B500F0AC
:1044700059FBFFF7A7FF00F0D7FB002211460248C7
:1044800000F0D8FBFEE700BF2144000808B5002279
:104490000E490F4800F0A0FD08B100F0C3FB0D4924
:1044A0000B4800F0AEFD08B100F0BCFB0A4908481B
:1044B00000F08BFD08B100F0B5FB054800F0A8FD49
:1044C00018B1BDE8084000F0ADBB08BD40000020B9
:1044D000AC040020C80000200C00002008B500F04B
:1044E000E9FB002008BD08B500F0D4FB002008BDA2
:1044F00008B500F0C7F9002008BD08B500F09AF92A
:10450000002008BD12230B80004870477C0000206B
:1045100004230B80004870475C000020002330B566
:104520001D46DCB2A2420CD9040F092C94BF3034D2
:10453000373401F8134001EB430400016570013387
:10454000EFE730BD10B51A230B80094A094B1068FC
:104550001B6818180AD0084B08221C680749FFF787
:10456000DDFF042206492046FFF7D8FF054810BDAD
:10457000F0F7FF1FE8F7FF1FECF7FF1F62000020B6
:10458000720000206000002010B5044C0A46044868
:10459000214601F065F8204610BD00BF70070020DD
:1045A0000058000810B5044C0A460448214601F0A2
:1045B00057F8204610BD00BF700700200A580008B9
:1045C00010B5044C0A460448214601F049F820463B
:1045D00010BD00BF700700201458000810B5044C2F
:1045E0000A460448214601F03BF8204610BD00BFB2
:1045F000700700202358000807B50D4B02689A4247
:1046000012D103F5DA33DA69142042F40002DA61D8
:10461000DB69002203F4000301931146019BFDF7BF
:104620003DFF1420FDF76EFF03B05DF804FB00BFF3
:10463000005C004000F50C71D0F8680200F0FFBC8F
:1046400000EB4113D3F83C21D0F8680200F024BD00
:1046500000EB4113DA6BD0F8680200F057BDD0F8D8
:10466000680200F0EBBD10B583680446022B01D050
:1046700000F0D8FAD4F86802012100F0C9FDD4F89E
:104680006802BDE8104000F09CBD000010B5044673
:10469000D0F8680200F0BFFDA36923B1024A136994
:1046A00043F00603136110BD00ED00E0D0F868028E
:1046B00000F0BABD10B50446184919480223082273
:1046C00080E80E00C4F8C0020023C0F8684283618D
:1046D000C3610362FEF77CF808B100F0A3FA002280
:1046E00011461823D4F8C002FEF742FC58230022DA
:1046F0008021D4F8C002FEF73BFC982300228121E0
:10470000D4F8C002FEF734FCD82300220121D4F8EB
:10471000C002FEF72DFC002010BD00BF005C004071
:104720008807002008B5D0F8C002FEF7C9F80328B2
:104730009ABF024B185C022008BD00BF3558000824
:1047400010B51C46D0F8C00213462246FEF7E3F827
:1047500003289ABF014B185C022010BD3558000891
:1047600008B5D0F8C002FEF709F903289ABF024B3A
:10477000185C022008BD00BF3558000808B5D0F805
:10478000C002FEF78FFB03289ABF024B185C022081
:1047900008BD00BF3558000808B5D0F8C002FEF7C4
:1047A000B5FB03289ABF024B185C022008BD00BF6E
:1047B000355800080A06D0F8C03245BF01F07F0125
:1047C00003EB411303EB411393F82A0058BF93F80E
:1047D0002A01704708B5D0F8C002FEF788F8032810
:1047E0009ABF024B185C022008BD00BF3558000874
:1047F00008B5D0F8C002FEF702F903289ABF024BB1
:10480000185C022008BD00BF3558000808B5D0F874
:10481000C002FEF7DCF803289ABF024B185C0220A6
:1048200008BD00BF3558000800487047E801002067
:10483000704770470A4A002313800A4A13800A4AC5
:1048400013800A4A13800A4A13800A4A13800A4ACC
:1048500013800A4A13800A4B01221A70704700BF66
:104860004A0300204E030020440300204803002098
:104870004203002046030020500400204003002093
:104880004C03002070470000812830B52BD103294C
:1048900029D1164A16481188028889B292B29142EB
:1048A0001ED0144A11888CB2134901EB841101F116
:1048B000400451F8045BA14243F8045BF9D113882A
:1048C00001339BB2138013889BB2042B02BF094BA8
:1048D00000221A80038801339BB20380402030BD40
:1048E000064B01221A70002030BD00BF500400208A
:1048F0004003002046030020500300204C0300200A
:1049000070B59128049A2ED1002A2CD01978072945
:1049100003D1164B01221A7025E0154C1549208849
:104920000988154E401A80B2042801D1802117E071
:10493000124D19462888124B80B203EB801000F00C
:1049400027FF2B88012101339BB22B802B889BB240
:10495000042B04BF00232B80238801339BB22380C8
:10496000306800F07BF9012070BD00BFA00400207A
:104970004403002048030020A80400204A0300202C
:1049800040020020404D80B52E4600221146812075
:1049900000F056F93D4B3E4F1A883B8892B29BB2CD
:1049A0009A42F2D0DFF8F080DFF80091B8F80040CA
:1049B000A4B2A301EA5C7E2A11D17F220134EA5419
:1049C000B9F80030042C08BF00249BB29C42F0D1FF
:1049D00000221146812000F033F90306E9D52D4C61
:1049E000B8F800002188DFF8C89080B289B209EBDE
:1049F000811106EB8010FCF725FCB8F80030484622
:104A000001339BB2A8F80030B8F800309BB2042BF9
:104A100002D1214B00221A803B8801339BB23B809C
:104A200023881E4F01339BB2238023889BB2042B23
:104A300002BF184B00221A80194A138801339BB217
:104A400013803B78002BA5D0164912880B8892B2B0
:104A50009BB29A429ED0144B1A8892B2541CA4B2B4
:104A60001C801C8800EB8212A4B2042C04BF00241A
:104A70001C800B8801339BB20B8000214023084629
:104A8000397000F0FFF885E7400200204403002061
:104A900048030020420300204E0300204C03002066
:104AA0005004002040030020460300204A03002059
:104AB0005003002070B5282294B00DEB02000021B5
:104AC00000F071FE14220DEB02001026002100F010
:104AD0006AFE3246002101A800F065FE4FF48033E3
:104AE000012202250B9312930AA84FF4E0130A92B5
:104AF0000E9213931195FEF753FA0F23002405939A
:104B000029464FF4806305A80893069507940994F5
:104B1000FEF718FC01A801960494FEF7D3FC14B02C
:104B200070BD000030B589B0FDF782FCFFF7C2FF11
:104B300010220DEB0200002100F035FE314B324D0A
:104B40009A69284642F010029A619A694FF400511E
:104B500002F010020192019A9A69002442F02002A8
:104B60009A619A6902F020020292029A9A6942F0CE
:104B700004029A619B69012203F004030393039BDF
:104B8000FDF722FE4FF400530493012304A905937B
:104B90002846022307930694FDF720FD1B481C4A74
:104BA0004FF4827380E80C004FF400738361082394
:104BB000C3610A238460C460046144610462446286
:104BC0008462C362FEF7FAFC124813494FF4E133E2
:104BD00080E80A000C2343618460C460046184613E
:104BE000C461FEF7F1FDFFF751FC0C4AD36843F0B6
:104BF0008073D3600A4B5C601A6842F001021A604D
:104C000009B030BD0010024000100140340A0020FD
:104C100000300140F409002000380140F0ED00E0D0
:104C2000001000E070470000014B00221A6070473E
:104C30005404002008B5034610469847002008BDDC
:104C400005490A68044B0242FBD019681A6822EA37
:104C500000021A600846704754040020024A136894
:104C600019431160704700BF54040020704770471B
:104C7000034B93F89C02C31E58425841704700BF33
:104C8000AC040020114602489AB200F088B900BF77
:104C9000AC04002007B540230093054B0022D3F855
:104CA000B83211469120FFF72BFE03B05DF804FBEC
:104CB000AC04002038B5094C0022D4F8B8520321C6
:104CC0002B468120FFF7E0FD021E06DD2946204627
:104CD000BDE8384092B200F062B938BDAC040020A3
:104CE0000649074A074B9A42BEBF51F8040B42F8E7
:104CF000040BF8E704488047044800474C58000874
:104D000000000020CC010020794300084901000880
:104D10001F49204A002301E041F8043B9142FBD3A4
:104D2000FFF7A4FBFEE7FEE7FEE7FEE7FEE7FEE790
:104D3000FEE7FEE7FEE7FEE7FEE7FEE7FEE7FEE74B
:104D4000FEE7FEE7FEE7FEE7FEE7FEE7FEE7FEE73B
:104D5000FEE7FEE7FEE7FEE7FEE7FEE7FEE7FEE72B
:104D6000FEE7FEE7FEE7FEE7FEE7FEE7FEE7FEE71B
:104D7000FEE7FEE7FEE7FEE7FEE7FEE7FEE7FEE70B
:104D8000FEE7FEE7FEE7FEE7FEE7FEE7FEE7FEE7FB
:104D9000CC0100208C0A00202923038000487047A2
:104DA00000010020292303800048704738010020BB
:104DB00029230380004870479C00002010B5D0F8DC
:104DC000B832002483F85040D0F8BC2259781269D8
:104DD00018789047204610BD10B5D0F8B842E36C63
:104DE000012B07D1D0F8BC326178DB682078984776
:104DF0000023E364002010BD0A23038000487047AD
:104E00002C01002038B50446D0F8B852D0F8BC3296
:104E10006978DB682878984740232A460121204694
:104E2000FFF7F4FC002038BD37B50025ADF806507B
:104E30000D78034615F060050A46D0F8B84223D035
:104E4000202D60D14978023909295AD8DFE801F0CC
:104E500010085959595959140C05937823644EE098
:104E6000012204F1400140E053881B0A636446E0DC
:104E7000012204F1440138E00121E164D288214695
:104E8000184600F01EFC3AE049780B2939D8DFE8D3
:104E900001F00638383838380E383838253093F86D
:104EA0009C1203292DD102220DF106011DE051882B
:104EB000090A222907D1D288D3F8BC12202A28BF98
:104EC0002022096811E0212905D1D2881049092A38
:104ED00028BF092209E000210A4606E093F89C1247
:104EE00003290ED1012204F14801184600F0D4FB39
:104EF00005E093F89C12032903D19378A364002062
:104F000004E01146184600F0B9F9022003B030BDA4
:104F10009000002038B5044681210025FFF720FCD1
:104F2000E56201212046FFF71BFCD4F8B832C4F833
:104F30006C514BB1D4F8BC329B689847D4F8B80296
:104F4000FFF776FCC4F8B852002038BDF8B5054626
:104F50000124402303228121FFF7F2FB4023032297
:104F60002146EC622846FFF7EBFBC5F86C41542064
:104F7000FFF75AFC0646C5F8B80270B1002780F862
:104F80005070D5F8BC325B689847402332462146C2
:104F90002846FFF73BFC3846F8BD2046F8BD70B503
:104FA000134690F89C22032A0BD1D0F8B862012452
:104FB00096F850503DB90A4686F850408121FFF7D7
:104FC00017FC002070BD204670BD19B1C0F8BC129E
:104FD000002070470220704708B580B1D0F8B43285
:104FE00013B10023C0F8B43209B1C0F8B0120123E4
:104FF00080F89C320270FFF75DFB002008BD0220A4
:1050000008BD19B1C0F8B4120020704702207047E3
:1050100008B5FFF787FB002008BD08B5D0F8B4320B
:105020000BB9022008BD1B6898470028F9D108BDBC
:1050300008B5D0F8B4325B689847002008BD38B591
:10504000044600F52A75284600F004F90123C4F847
:10505000943294F8A812B4F8AE32C4F8983201F041
:105060001F03012B0CD006D3022B0ED1294620465C
:1050700000F062FA0EE02946204600F00BF909E044
:105080002946204600F032FA04E001F08001204673
:10509000FFF774FB002038BD70B50546164641BBCE
:1050A000D0F89432032B1DD1D0F86021D0F86431B0
:1050B0009A420AD9D21A9342C0F8602131468CBF75
:1050C00092B29AB200F00CFB1CE0D0F8B4321B692B
:1050D00023B190F89C22032A00D19847284600F07B
:1050E00007FB0FE0052B0DD1C5F89412FFF746FB27
:1050F00008E0D0F8B4329B6933B190F89C22032ABF
:1051000002D19847002070BD022070BD70B51346D3
:1051100004460E46002947D1D0F89422022A35D100
:10512000056A426A954207D9AA1A0262194692B2E2
:1051300000F0BFFA334611E0C369B3FBF2F502FB9E
:1051400015358DB99A420FD8D0F8982293420BD2D8
:105150002A4600F0AEFA2B46C4F898521A46194671
:105160002046FFF753FB17E0D4F8B432DB682BB1CD
:1051700094F89C22032A01D120469847802120469A
:10518000FFF7FCFA204600F0BEFA05E032F0040317
:1051900002D18021FFF7F2FA94F8A0320020012B0F
:1051A0000ED184F8A00270BDD0F8B4325B6933B17F
:1051B00090F89C22032A02D19847002070BD02205B
:1051C00070BD70B5044600221146012540264023DB
:1051D000FFF7B6FA33468021C4F85851C4F8646129
:1051E00000222046FFF7ACFAD4F8B8320021A561BE
:1051F000666284F89C52C4F894126160C4F8A412E8
:1052000023B1D4F8B43220465B689847002070BDC3
:1052100001740020704790F89C3280F89D3204237E
:1052200080F89C320020704790F89C32042B04BF19
:1052300090F89D3280F89C320020704708B590F8B5
:105240009C22032A04D1D0F8B432DB6903B1984719
:10525000002008BD0B7803704B784370CA788B78B8
:1052600003EB022343804A790B7903EB022383800B
:10527000CA798B7903EB0223C380704710B50446CB
:105280008021FFF77BFA2046BDE810400021FFF7A0
:1052900075BA000073B50B78044603F06003202B49
:1052A0000D4605D0402B03D0002B40F0058106E0D1
:1052B000D4F8B43229469B682046984710E14B78D1
:1052C000092B00F2F780DFE813F0CD00E600F500CF
:1052D000E200F5006C000A00F500BC008A00002323
:1052E000ADF806304B881A0A013A062A00F2E2802D
:1052F000DFE812F007000B001700E000E0003F00BD
:105300004A00D0F8B0321B682EE0027CD0F8B432EC
:105310000AB99B6A00E0DB6A0DF106009847022398
:105320003DE0DBB2052B00F2C580DFE803F00307A8
:105330000B0F1317D0F8B0325B6812E0D0F8B03220
:105340009B680EE0D0F8B032DB680AE0D0F8B032EB
:105350001B6906E0D0F8B0325B6902E0D0F8B032E9
:105360009B69002B00F0A6800DF10601207C984778
:10537000A5E0037C002B40F09D80D0F8B4320DF105
:1053800006005B6B98479AE0037C002B40F092800C
:10539000D0F8B4320DF106001B6B98470723437019
:1053A0008DE08B88002B40F08580CB88002B40F06F
:1053B00081804E887F2E7DD890F89C32F1B2032BED
:1053C00078D080F89E12FFF705FA204600F090F999
:1053D0000EB1022300E0012384F89C3280E089783A
:1053E000414E0129317065D890F89C32022B02D0D1
:1053F000032B08D01DE0002958D001210323416070
:1054000080F89C320FE031B9022380F89C32416071
:10541000FFF70EFE4AE04168012947D0C9B2FFF705
:1054200007FE317861602046FFF7F7FD02283DD185
:1054300040E02946FFF722FF31782046FFF7F8FDCC
:105440004EE0CA88012A35D190F89C3293B3022BE2
:1054500003D9032B2ED1011D15E00146002341F88D
:10546000083F10E090F89C32013B022B22D8CB88F9
:10547000022B1FD10022C260D0F8A42202B1C36067
:10548000022204F10C01204600F006F928E04B88C6
:10549000012B25D108E090F89C32013B022B09D862
:1054A0004B88012B1CD10023C4F8A432204600F005
:1054B0001FF915E029462046FFF7E0FE10E0BDF891
:1054C000062052B1EB8843B19A4228BF1A460146E2
:1054D0002046ADF8062000F0DFF8EB88002BE5D081
:1054E000002002B070BD00BF5804002038B50B7812
:1054F000044603F06003202B0D4602D0402B00D061
:10550000B3B994F89C32013B022B0FD82B79012BB5
:105510000CD8D4F8B43229469B6820469847EB88CB
:1055200043B938B9204600F0E3F803E029462046A5
:10553000FFF7A4FE002038BD70B50B78044603F0D9
:105540006003202B0A4605D0402B03D0002B40F0EF
:10555000838006E0D4F8B43211469B682046984711
:105560007CE04E788D88012EEBB215D031D3032E1E
:1055700072D190F89C52022D15D0032D6CD1498820
:1055800031B9590604D0D28812B91946FFF7F6F896
:10559000204600F0ADF861E090F89C52022D02D058
:1055A000032D0DD058E05E0602D11146204653E08F
:1055B0001946FFF7E3F880212046FFF7DFF84DE0BA
:1055C0004A88002A4AD15D06E2D01946FFF7E4F87E
:1055D000DEE790F89C62022E02D0032E0CD03BE056
:1055E0005906E2D12B064CBF00F1140100F5AA7157
:1055F00000230B6002222BE015F0800F03F00F0157
:105600004FF0140505FB010108D089690029CCD0B1
:1056100003F07F0205FB0205143509E0D1F85811AB
:105620000029C2D003F07F0205FB020505F5AA752B
:1056300013F07F0201D12A6008E019462046FFF7E7
:10564000B9F810B101232B6000E02860294602223E
:10565000204600F021F801E0FFF710FE002070BDA9
:1056600030B5C0B105462B1A15F8014BDBB2002C42
:10567000F9D101335B0013800B7003234B700138A9
:10568000022310F8015F35B15A1CCD54D2B2023357
:10569000DBB28C54F5E730BD134610B50222C0F8DA
:1056A0009422C3610A4603620021FFF7A1F800209B
:1056B00010BD08B513460A460021FFF799F80020EF
:1056C00008BD134610B50322C0F89422C0F85C311F
:1056D0000A46C0F860310021FFF798F8002010BD9D
:1056E00008B513460A460021FFF790F8002008BDD0
:1056F00008B50423C0F8943200231A461946FFF770
:1057000077F8002008BD08B50523C0F894320023BF
:105710001A461946FFF77AF8002008BD08B5074B6E
:10572000044613B10021AFF30080054B1868836A6B
:1057300003B198472046FFF7F5FA00BF00000000CC
:105740003C5800080E4B70B51E460E4C0025E41A5E
:10575000A410A54204D056F8253098470135F8E743
:1057600000F02AF8084B094C1E46E41AA410002544
:10577000A54204D056F8253098470135F8E770BDAA
:10578000C4010020C4010020C4010020C801002081
:1057900010B5431E0A44914204D011F8014B03F89E
:1057A000014FF8E710BD03460244934202D003F8CC
:1057B000011BFAE770470000F8B500BFF8BC08BC51
:1057C0009E467047F8B500BFF8BC08BC9E467047BF
:1057D000322E302E300002030405060708090A0B9A
:1057E0000C0D0E0F10100102000000000000000060
:1057F0000102030406070809000000000102030477
:1058000047656E69654B69747300434D5349532076
:10581000444150004441502048494420436F6E6643
:105820006967004441502048494420496E746572BC
:10583000666163650000020102430000640100200C
:045840000000000064
:0858440004A9FF7F0100000030
:10584C0010000000010000000024F40020000020E3
:10585C00FB440008F1440008E7440008DD4400085C
:10586C000600FF0901A101150025FF7508954009E7
:10587C0001810295400901910295400901B102C0D4
:10588C00054500081145000889450008A545000894
:10589C0045450008C1450008DD450008040309041E
:1058AC001A030000000000000000000000000000CF
:1058BC0000000000000000000000000012010002C7
:1058CC000000004083045057000201020301000055
:1058DC000921110100012220000000000902290009
:1058EC00010100C03209040000020300000009217C
:1058FC00110100012220000705810340000107056A
:10590C0001034000010000004D4F0008154F000836
:10591C00294E000800000000D94D0008BD4D0008BC
:10592C00054E000800000000000000000000000010
:10593C00A54D0008994D0008B14D0008F94D00081F
:10594C0009022900010100C0320904000002030011
:10595C0000000921110100012220000705810340EC
:10596C000001070501034000010000000A060002C7
:10597C00000000400100000009022900010100C0E4
:10598C00320904000002030000000921110100018A
:10599C002220000705810340000107050103400098
:1059AC0001000000000000000000000000000000EA
:1059BC0000000000000000000000000000000000DB
:1059CC000000000039580008000000000000000032
:1059DC0000000000000000000000000000000000BB
:1059EC0000000000000000000000000000000000AB
:1059FC00000000000000000000000000000000009B
:0C5A0C000000000011010008ED0000087F
:0400000508000000EF
:00000001FF
